{
	"contracts/BlockchainMessenger.sol": {
		"BlockchainMessager": {
			"abi": [
				{
					"inputs": [],
					"stateMutability": "nonpayable",
					"type": "constructor"
				},
				{
					"inputs": [],
					"name": "counter",
					"outputs": [
						{
							"internalType": "uint256",
							"name": "",
							"type": "uint256"
						}
					],
					"stateMutability": "view",
					"type": "function"
				},
				{
					"inputs": [],
					"name": "myString",
					"outputs": [
						{
							"internalType": "string",
							"name": "",
							"type": "string"
						}
					],
					"stateMutability": "view",
					"type": "function"
				},
				{
					"inputs": [],
					"name": "owner",
					"outputs": [
						{
							"internalType": "address",
							"name": "",
							"type": "address"
						}
					],
					"stateMutability": "view",
					"type": "function"
				},
				{
					"inputs": [
						{
							"internalType": "string",
							"name": "_setString",
							"type": "string"
						}
					],
					"name": "updateString",
					"outputs": [],
					"stateMutability": "nonpayable",
					"type": "function"
				}
			],
			"devdoc": {
				"kind": "dev",
				"methods": {},
				"version": 1
			},
			"evm": {
				"assembly": "    /* \"contracts/BlockchainMessenger.sol\":58:383  contract BlockchainMessager {... */\n  mstore(0x40, 0x80)\n    /* \"contracts/BlockchainMessenger.sol\":173:221  constructor(){... */\n  callvalue\n  dup1\n  iszero\n  tag_1\n  jumpi\n  0x00\n  dup1\n  revert\ntag_1:\n  pop\n    /* \"contracts/BlockchainMessenger.sol\":204:214  msg.sender */\n  caller\n    /* \"contracts/BlockchainMessenger.sol\":196:201  owner */\n  0x02\n  0x00\n    /* \"contracts/BlockchainMessenger.sol\":196:214  owner = msg.sender */\n  0x0100\n  exp\n  dup2\n  sload\n  dup2\n  0xffffffffffffffffffffffffffffffffffffffff\n  mul\n  not\n  and\n  swap1\n  dup4\n  0xffffffffffffffffffffffffffffffffffffffff\n  and\n  mul\n  or\n  swap1\n  sstore\n  pop\n    /* \"contracts/BlockchainMessenger.sol\":58:383  contract BlockchainMessager {... */\n  dataSize(sub_0)\n  dup1\n  dataOffset(sub_0)\n  0x00\n  codecopy\n  0x00\n  return\nstop\n\nsub_0: assembly {\n        /* \"contracts/BlockchainMessenger.sol\":58:383  contract BlockchainMessager {... */\n      mstore(0x40, 0x80)\n      callvalue\n      dup1\n      iszero\n      tag_1\n      jumpi\n      0x00\n      dup1\n      revert\n    tag_1:\n      pop\n      jumpi(tag_2, lt(calldatasize, 0x04))\n      shr(0xe0, calldataload(0x00))\n      dup1\n      0x492bfa18\n      eq\n      tag_3\n      jumpi\n      dup1\n      0x61bc221a\n      eq\n      tag_4\n      jumpi\n      dup1\n      0x8da5cb5b\n      eq\n      tag_5\n      jumpi\n      dup1\n      0xc3ccf402\n      eq\n      tag_6\n      jumpi\n    tag_2:\n      0x00\n      dup1\n      revert\n        /* \"contracts/BlockchainMessenger.sol\":118:140  string public myString */\n    tag_3:\n      tag_7\n      tag_8\n      jump\t// in\n    tag_7:\n      mload(0x40)\n      tag_9\n      swap2\n      swap1\n      tag_10\n      jump\t// in\n    tag_9:\n      mload(0x40)\n      dup1\n      swap2\n      sub\n      swap1\n      return\n        /* \"contracts/BlockchainMessenger.sol\":93:112  uint public counter */\n    tag_4:\n      tag_11\n      tag_12\n      jump\t// in\n    tag_11:\n      mload(0x40)\n      tag_13\n      swap2\n      swap1\n      tag_14\n      jump\t// in\n    tag_13:\n      mload(0x40)\n      dup1\n      swap2\n      sub\n      swap1\n      return\n        /* \"contracts/BlockchainMessenger.sol\":146:166  address public owner */\n    tag_5:\n      tag_15\n      tag_16\n      jump\t// in\n    tag_15:\n      mload(0x40)\n      tag_17\n      swap2\n      swap1\n      tag_18\n      jump\t// in\n    tag_17:\n      mload(0x40)\n      dup1\n      swap2\n      sub\n      swap1\n      return\n        /* \"contracts/BlockchainMessenger.sol\":227:380  function updateString(string memory _setString)public {... */\n    tag_6:\n      tag_19\n      0x04\n      dup1\n      calldatasize\n      sub\n      dup2\n      add\n      swap1\n      tag_20\n      swap2\n      swap1\n      tag_21\n      jump\t// in\n    tag_20:\n      tag_22\n      jump\t// in\n    tag_19:\n      stop\n        /* \"contracts/BlockchainMessenger.sol\":118:140  string public myString */\n    tag_8:\n      0x01\n      dup1\n      sload\n      tag_23\n      swap1\n      tag_24\n      jump\t// in\n    tag_23:\n      dup1\n      0x1f\n      add\n      0x20\n      dup1\n      swap2\n      div\n      mul\n      0x20\n      add\n      mload(0x40)\n      swap1\n      dup2\n      add\n      0x40\n      mstore\n      dup1\n      swap3\n      swap2\n      swap1\n      dup2\n      dup2\n      mstore\n      0x20\n      add\n      dup3\n      dup1\n      sload\n      tag_25\n      swap1\n      tag_24\n      jump\t// in\n    tag_25:\n      dup1\n      iszero\n      tag_26\n      jumpi\n      dup1\n      0x1f\n      lt\n      tag_27\n      jumpi\n      0x0100\n      dup1\n      dup4\n      sload\n      div\n      mul\n      dup4\n      mstore\n      swap2\n      0x20\n      add\n      swap2\n      jump(tag_26)\n    tag_27:\n      dup3\n      add\n      swap2\n      swap1\n      0x00\n      mstore\n      keccak256(0x00, 0x20)\n      swap1\n    tag_28:\n      dup2\n      sload\n      dup2\n      mstore\n      swap1\n      0x01\n      add\n      swap1\n      0x20\n      add\n      dup1\n      dup4\n      gt\n      tag_28\n      jumpi\n      dup3\n      swap1\n      sub\n      0x1f\n      and\n      dup3\n      add\n      swap2\n    tag_26:\n      pop\n      pop\n      pop\n      pop\n      pop\n      dup2\n      jump\t// out\n        /* \"contracts/BlockchainMessenger.sol\":93:112  uint public counter */\n    tag_12:\n      sload(0x00)\n      dup2\n      jump\t// out\n        /* \"contracts/BlockchainMessenger.sol\":146:166  address public owner */\n    tag_16:\n      0x02\n      0x00\n      swap1\n      sload\n      swap1\n      0x0100\n      exp\n      swap1\n      div\n      0xffffffffffffffffffffffffffffffffffffffff\n      and\n      dup2\n      jump\t// out\n        /* \"contracts/BlockchainMessenger.sol\":227:380  function updateString(string memory _setString)public {... */\n    tag_22:\n        /* \"contracts/BlockchainMessenger.sol\":306:311  owner */\n      0x02\n      0x00\n      swap1\n      sload\n      swap1\n      0x0100\n      exp\n      swap1\n      div\n      0xffffffffffffffffffffffffffffffffffffffff\n      and\n        /* \"contracts/BlockchainMessenger.sol\":292:311  msg.sender == owner */\n      0xffffffffffffffffffffffffffffffffffffffff\n      and\n        /* \"contracts/BlockchainMessenger.sol\":292:302  msg.sender */\n      caller\n        /* \"contracts/BlockchainMessenger.sol\":292:311  msg.sender == owner */\n      0xffffffffffffffffffffffffffffffffffffffff\n      and\n      sub\n        /* \"contracts/BlockchainMessenger.sol\":288:374  if (msg.sender == owner ) {... */\n      tag_30\n      jumpi\n        /* \"contracts/BlockchainMessenger.sol\":336:346  _setString */\n      dup1\n        /* \"contracts/BlockchainMessenger.sol\":325:333  myString */\n      0x01\n        /* \"contracts/BlockchainMessenger.sol\":325:346  myString = _setString */\n      swap1\n      dup2\n      tag_31\n      swap2\n      swap1\n      tag_32\n      jump\t// in\n    tag_31:\n      pop\n        /* \"contracts/BlockchainMessenger.sol\":357:364  counter */\n      0x00\n      dup1\n        /* \"contracts/BlockchainMessenger.sol\":357:366  counter++ */\n      dup2\n      sload\n      dup1\n      swap3\n      swap2\n      swap1\n      tag_33\n      swap1\n      tag_34\n      jump\t// in\n    tag_33:\n      swap2\n      swap1\n      pop\n      sstore\n      pop\n        /* \"contracts/BlockchainMessenger.sol\":288:374  if (msg.sender == owner ) {... */\n    tag_30:\n        /* \"contracts/BlockchainMessenger.sol\":227:380  function updateString(string memory _setString)public {... */\n      pop\n      jump\t// out\n        /* \"#utility.yul\":7:106   */\n    tag_35:\n        /* \"#utility.yul\":59:65   */\n      0x00\n        /* \"#utility.yul\":93:98   */\n      dup2\n        /* \"#utility.yul\":87:99   */\n      mload\n        /* \"#utility.yul\":77:99   */\n      swap1\n      pop\n        /* \"#utility.yul\":7:106   */\n      swap2\n      swap1\n      pop\n      jump\t// out\n        /* \"#utility.yul\":112:281   */\n    tag_36:\n        /* \"#utility.yul\":196:207   */\n      0x00\n        /* \"#utility.yul\":230:236   */\n      dup3\n        /* \"#utility.yul\":225:228   */\n      dup3\n        /* \"#utility.yul\":218:237   */\n      mstore\n        /* \"#utility.yul\":270:274   */\n      0x20\n        /* \"#utility.yul\":265:268   */\n      dup3\n        /* \"#utility.yul\":261:275   */\n      add\n        /* \"#utility.yul\":246:275   */\n      swap1\n      pop\n        /* \"#utility.yul\":112:281   */\n      swap3\n      swap2\n      pop\n      pop\n      jump\t// out\n        /* \"#utility.yul\":287:426   */\n    tag_37:\n        /* \"#utility.yul\":376:382   */\n      dup3\n        /* \"#utility.yul\":371:374   */\n      dup2\n        /* \"#utility.yul\":366:369   */\n      dup4\n        /* \"#utility.yul\":360:383   */\n      mcopy\n        /* \"#utility.yul\":417:418   */\n      0x00\n        /* \"#utility.yul\":408:414   */\n      dup4\n        /* \"#utility.yul\":403:406   */\n      dup4\n        /* \"#utility.yul\":399:415   */\n      add\n        /* \"#utility.yul\":392:419   */\n      mstore\n        /* \"#utility.yul\":287:426   */\n      pop\n      pop\n      pop\n      jump\t// out\n        /* \"#utility.yul\":432:534   */\n    tag_38:\n        /* \"#utility.yul\":473:479   */\n      0x00\n        /* \"#utility.yul\":524:526   */\n      0x1f\n        /* \"#utility.yul\":520:527   */\n      not\n        /* \"#utility.yul\":515:517   */\n      0x1f\n        /* \"#utility.yul\":508:513   */\n      dup4\n        /* \"#utility.yul\":504:518   */\n      add\n        /* \"#utility.yul\":500:528   */\n      and\n        /* \"#utility.yul\":490:528   */\n      swap1\n      pop\n        /* \"#utility.yul\":432:534   */\n      swap2\n      swap1\n      pop\n      jump\t// out\n        /* \"#utility.yul\":540:917   */\n    tag_39:\n        /* \"#utility.yul\":628:631   */\n      0x00\n        /* \"#utility.yul\":656:695   */\n      tag_80\n        /* \"#utility.yul\":689:694   */\n      dup3\n        /* \"#utility.yul\":656:695   */\n      tag_35\n      jump\t// in\n    tag_80:\n        /* \"#utility.yul\":711:782   */\n      tag_81\n        /* \"#utility.yul\":775:781   */\n      dup2\n        /* \"#utility.yul\":770:773   */\n      dup6\n        /* \"#utility.yul\":711:782   */\n      tag_36\n      jump\t// in\n    tag_81:\n        /* \"#utility.yul\":704:782   */\n      swap4\n      pop\n        /* \"#utility.yul\":791:856   */\n      tag_82\n        /* \"#utility.yul\":849:855   */\n      dup2\n        /* \"#utility.yul\":844:847   */\n      dup6\n        /* \"#utility.yul\":837:841   */\n      0x20\n        /* \"#utility.yul\":830:835   */\n      dup7\n        /* \"#utility.yul\":826:842   */\n      add\n        /* \"#utility.yul\":791:856   */\n      tag_37\n      jump\t// in\n    tag_82:\n        /* \"#utility.yul\":881:910   */\n      tag_83\n        /* \"#utility.yul\":903:909   */\n      dup2\n        /* \"#utility.yul\":881:910   */\n      tag_38\n      jump\t// in\n    tag_83:\n        /* \"#utility.yul\":876:879   */\n      dup5\n        /* \"#utility.yul\":872:911   */\n      add\n        /* \"#utility.yul\":865:911   */\n      swap2\n      pop\n        /* \"#utility.yul\":632:917   */\n      pop\n        /* \"#utility.yul\":540:917   */\n      swap3\n      swap2\n      pop\n      pop\n      jump\t// out\n        /* \"#utility.yul\":923:1236   */\n    tag_10:\n        /* \"#utility.yul\":1036:1040   */\n      0x00\n        /* \"#utility.yul\":1074:1076   */\n      0x20\n        /* \"#utility.yul\":1063:1072   */\n      dup3\n        /* \"#utility.yul\":1059:1077   */\n      add\n        /* \"#utility.yul\":1051:1077   */\n      swap1\n      pop\n        /* \"#utility.yul\":1123:1132   */\n      dup2\n        /* \"#utility.yul\":1117:1121   */\n      dup2\n        /* \"#utility.yul\":1113:1133   */\n      sub\n        /* \"#utility.yul\":1109:1110   */\n      0x00\n        /* \"#utility.yul\":1098:1107   */\n      dup4\n        /* \"#utility.yul\":1094:1111   */\n      add\n        /* \"#utility.yul\":1087:1134   */\n      mstore\n        /* \"#utility.yul\":1151:1229   */\n      tag_85\n        /* \"#utility.yul\":1224:1228   */\n      dup2\n        /* \"#utility.yul\":1215:1221   */\n      dup5\n        /* \"#utility.yul\":1151:1229   */\n      tag_39\n      jump\t// in\n    tag_85:\n        /* \"#utility.yul\":1143:1229   */\n      swap1\n      pop\n        /* \"#utility.yul\":923:1236   */\n      swap3\n      swap2\n      pop\n      pop\n      jump\t// out\n        /* \"#utility.yul\":1242:1319   */\n    tag_40:\n        /* \"#utility.yul\":1279:1286   */\n      0x00\n        /* \"#utility.yul\":1308:1313   */\n      dup2\n        /* \"#utility.yul\":1297:1313   */\n      swap1\n      pop\n        /* \"#utility.yul\":1242:1319   */\n      swap2\n      swap1\n      pop\n      jump\t// out\n        /* \"#utility.yul\":1325:1443   */\n    tag_41:\n        /* \"#utility.yul\":1412:1436   */\n      tag_88\n        /* \"#utility.yul\":1430:1435   */\n      dup2\n        /* \"#utility.yul\":1412:1436   */\n      tag_40\n      jump\t// in\n    tag_88:\n        /* \"#utility.yul\":1407:1410   */\n      dup3\n        /* \"#utility.yul\":1400:1437   */\n      mstore\n        /* \"#utility.yul\":1325:1443   */\n      pop\n      pop\n      jump\t// out\n        /* \"#utility.yul\":1449:1671   */\n    tag_14:\n        /* \"#utility.yul\":1542:1546   */\n      0x00\n        /* \"#utility.yul\":1580:1582   */\n      0x20\n        /* \"#utility.yul\":1569:1578   */\n      dup3\n        /* \"#utility.yul\":1565:1583   */\n      add\n        /* \"#utility.yul\":1557:1583   */\n      swap1\n      pop\n        /* \"#utility.yul\":1593:1664   */\n      tag_90\n        /* \"#utility.yul\":1661:1662   */\n      0x00\n        /* \"#utility.yul\":1650:1659   */\n      dup4\n        /* \"#utility.yul\":1646:1663   */\n      add\n        /* \"#utility.yul\":1637:1643   */\n      dup5\n        /* \"#utility.yul\":1593:1664   */\n      tag_41\n      jump\t// in\n    tag_90:\n        /* \"#utility.yul\":1449:1671   */\n      swap3\n      swap2\n      pop\n      pop\n      jump\t// out\n        /* \"#utility.yul\":1677:1803   */\n    tag_42:\n        /* \"#utility.yul\":1714:1721   */\n      0x00\n        /* \"#utility.yul\":1754:1796   */\n      0xffffffffffffffffffffffffffffffffffffffff\n        /* \"#utility.yul\":1747:1752   */\n      dup3\n        /* \"#utility.yul\":1743:1797   */\n      and\n        /* \"#utility.yul\":1732:1797   */\n      swap1\n      pop\n        /* \"#utility.yul\":1677:1803   */\n      swap2\n      swap1\n      pop\n      jump\t// out\n        /* \"#utility.yul\":1809:1905   */\n    tag_43:\n        /* \"#utility.yul\":1846:1853   */\n      0x00\n        /* \"#utility.yul\":1875:1899   */\n      tag_93\n        /* \"#utility.yul\":1893:1898   */\n      dup3\n        /* \"#utility.yul\":1875:1899   */\n      tag_42\n      jump\t// in\n    tag_93:\n        /* \"#utility.yul\":1864:1899   */\n      swap1\n      pop\n        /* \"#utility.yul\":1809:1905   */\n      swap2\n      swap1\n      pop\n      jump\t// out\n        /* \"#utility.yul\":1911:2029   */\n    tag_44:\n        /* \"#utility.yul\":1998:2022   */\n      tag_95\n        /* \"#utility.yul\":2016:2021   */\n      dup2\n        /* \"#utility.yul\":1998:2022   */\n      tag_43\n      jump\t// in\n    tag_95:\n        /* \"#utility.yul\":1993:1996   */\n      dup3\n        /* \"#utility.yul\":1986:2023   */\n      mstore\n        /* \"#utility.yul\":1911:2029   */\n      pop\n      pop\n      jump\t// out\n        /* \"#utility.yul\":2035:2257   */\n    tag_18:\n        /* \"#utility.yul\":2128:2132   */\n      0x00\n        /* \"#utility.yul\":2166:2168   */\n      0x20\n        /* \"#utility.yul\":2155:2164   */\n      dup3\n        /* \"#utility.yul\":2151:2169   */\n      add\n        /* \"#utility.yul\":2143:2169   */\n      swap1\n      pop\n        /* \"#utility.yul\":2179:2250   */\n      tag_97\n        /* \"#utility.yul\":2247:2248   */\n      0x00\n        /* \"#utility.yul\":2236:2245   */\n      dup4\n        /* \"#utility.yul\":2232:2249   */\n      add\n        /* \"#utility.yul\":2223:2229   */\n      dup5\n        /* \"#utility.yul\":2179:2250   */\n      tag_44\n      jump\t// in\n    tag_97:\n        /* \"#utility.yul\":2035:2257   */\n      swap3\n      swap2\n      pop\n      pop\n      jump\t// out\n        /* \"#utility.yul\":2263:2338   */\n    tag_45:\n        /* \"#utility.yul\":2296:2302   */\n      0x00\n        /* \"#utility.yul\":2329:2331   */\n      0x40\n        /* \"#utility.yul\":2323:2332   */\n      mload\n        /* \"#utility.yul\":2313:2332   */\n      swap1\n      pop\n        /* \"#utility.yul\":2263:2338   */\n      swap1\n      jump\t// out\n        /* \"#utility.yul\":2344:2461   */\n    tag_46:\n        /* \"#utility.yul\":2453:2454   */\n      0x00\n        /* \"#utility.yul\":2450:2451   */\n      dup1\n        /* \"#utility.yul\":2443:2455   */\n      revert\n        /* \"#utility.yul\":2467:2584   */\n    tag_47:\n        /* \"#utility.yul\":2576:2577   */\n      0x00\n        /* \"#utility.yul\":2573:2574   */\n      dup1\n        /* \"#utility.yul\":2566:2578   */\n      revert\n        /* \"#utility.yul\":2590:2707   */\n    tag_48:\n        /* \"#utility.yul\":2699:2700   */\n      0x00\n        /* \"#utility.yul\":2696:2697   */\n      dup1\n        /* \"#utility.yul\":2689:2701   */\n      revert\n        /* \"#utility.yul\":2713:2830   */\n    tag_49:\n        /* \"#utility.yul\":2822:2823   */\n      0x00\n        /* \"#utility.yul\":2819:2820   */\n      dup1\n        /* \"#utility.yul\":2812:2824   */\n      revert\n        /* \"#utility.yul\":2836:3016   */\n    tag_50:\n        /* \"#utility.yul\":2884:2961   */\n      0x4e487b7100000000000000000000000000000000000000000000000000000000\n        /* \"#utility.yul\":2881:2882   */\n      0x00\n        /* \"#utility.yul\":2874:2962   */\n      mstore\n        /* \"#utility.yul\":2981:2985   */\n      0x41\n        /* \"#utility.yul\":2978:2979   */\n      0x04\n        /* \"#utility.yul\":2971:2986   */\n      mstore\n        /* \"#utility.yul\":3005:3009   */\n      0x24\n        /* \"#utility.yul\":3002:3003   */\n      0x00\n        /* \"#utility.yul\":2995:3010   */\n      revert\n        /* \"#utility.yul\":3022:3303   */\n    tag_51:\n        /* \"#utility.yul\":3105:3132   */\n      tag_105\n        /* \"#utility.yul\":3127:3131   */\n      dup3\n        /* \"#utility.yul\":3105:3132   */\n      tag_38\n      jump\t// in\n    tag_105:\n        /* \"#utility.yul\":3097:3103   */\n      dup2\n        /* \"#utility.yul\":3093:3133   */\n      add\n        /* \"#utility.yul\":3235:3241   */\n      dup2\n        /* \"#utility.yul\":3223:3233   */\n      dup2\n        /* \"#utility.yul\":3220:3242   */\n      lt\n        /* \"#utility.yul\":3199:3217   */\n      0xffffffffffffffff\n        /* \"#utility.yul\":3187:3197   */\n      dup3\n        /* \"#utility.yul\":3184:3218   */\n      gt\n        /* \"#utility.yul\":3181:3243   */\n      or\n        /* \"#utility.yul\":3178:3266   */\n      iszero\n      tag_106\n      jumpi\n        /* \"#utility.yul\":3246:3264   */\n      tag_107\n      tag_50\n      jump\t// in\n    tag_107:\n        /* \"#utility.yul\":3178:3266   */\n    tag_106:\n        /* \"#utility.yul\":3286:3296   */\n      dup1\n        /* \"#utility.yul\":3282:3284   */\n      0x40\n        /* \"#utility.yul\":3275:3297   */\n      mstore\n        /* \"#utility.yul\":3065:3303   */\n      pop\n        /* \"#utility.yul\":3022:3303   */\n      pop\n      pop\n      jump\t// out\n        /* \"#utility.yul\":3309:3438   */\n    tag_52:\n        /* \"#utility.yul\":3343:3349   */\n      0x00\n        /* \"#utility.yul\":3370:3390   */\n      tag_109\n      tag_45\n      jump\t// in\n    tag_109:\n        /* \"#utility.yul\":3360:3390   */\n      swap1\n      pop\n        /* \"#utility.yul\":3399:3432   */\n      tag_110\n        /* \"#utility.yul\":3427:3431   */\n      dup3\n        /* \"#utility.yul\":3419:3425   */\n      dup3\n        /* \"#utility.yul\":3399:3432   */\n      tag_51\n      jump\t// in\n    tag_110:\n        /* \"#utility.yul\":3309:3438   */\n      swap2\n      swap1\n      pop\n      jump\t// out\n        /* \"#utility.yul\":3444:3752   */\n    tag_53:\n        /* \"#utility.yul\":3506:3510   */\n      0x00\n        /* \"#utility.yul\":3596:3614   */\n      0xffffffffffffffff\n        /* \"#utility.yul\":3588:3594   */\n      dup3\n        /* \"#utility.yul\":3585:3615   */\n      gt\n        /* \"#utility.yul\":3582:3638   */\n      iszero\n      tag_112\n      jumpi\n        /* \"#utility.yul\":3618:3636   */\n      tag_113\n      tag_50\n      jump\t// in\n    tag_113:\n        /* \"#utility.yul\":3582:3638   */\n    tag_112:\n        /* \"#utility.yul\":3656:3685   */\n      tag_114\n        /* \"#utility.yul\":3678:3684   */\n      dup3\n        /* \"#utility.yul\":3656:3685   */\n      tag_38\n      jump\t// in\n    tag_114:\n        /* \"#utility.yul\":3648:3685   */\n      swap1\n      pop\n        /* \"#utility.yul\":3740:3744   */\n      0x20\n        /* \"#utility.yul\":3734:3738   */\n      dup2\n        /* \"#utility.yul\":3730:3745   */\n      add\n        /* \"#utility.yul\":3722:3745   */\n      swap1\n      pop\n        /* \"#utility.yul\":3444:3752   */\n      swap2\n      swap1\n      pop\n      jump\t// out\n        /* \"#utility.yul\":3758:3906   */\n    tag_54:\n        /* \"#utility.yul\":3856:3862   */\n      dup3\n        /* \"#utility.yul\":3851:3854   */\n      dup2\n        /* \"#utility.yul\":3846:3849   */\n      dup4\n        /* \"#utility.yul\":3833:3863   */\n      calldatacopy\n        /* \"#utility.yul\":3897:3898   */\n      0x00\n        /* \"#utility.yul\":3888:3894   */\n      dup4\n        /* \"#utility.yul\":3883:3886   */\n      dup4\n        /* \"#utility.yul\":3879:3895   */\n      add\n        /* \"#utility.yul\":3872:3899   */\n      mstore\n        /* \"#utility.yul\":3758:3906   */\n      pop\n      pop\n      pop\n      jump\t// out\n        /* \"#utility.yul\":3912:4337   */\n    tag_55:\n        /* \"#utility.yul\":3990:3995   */\n      0x00\n        /* \"#utility.yul\":4015:4081   */\n      tag_117\n        /* \"#utility.yul\":4031:4080   */\n      tag_118\n        /* \"#utility.yul\":4073:4079   */\n      dup5\n        /* \"#utility.yul\":4031:4080   */\n      tag_53\n      jump\t// in\n    tag_118:\n        /* \"#utility.yul\":4015:4081   */\n      tag_52\n      jump\t// in\n    tag_117:\n        /* \"#utility.yul\":4006:4081   */\n      swap1\n      pop\n        /* \"#utility.yul\":4104:4110   */\n      dup3\n        /* \"#utility.yul\":4097:4102   */\n      dup2\n        /* \"#utility.yul\":4090:4111   */\n      mstore\n        /* \"#utility.yul\":4142:4146   */\n      0x20\n        /* \"#utility.yul\":4135:4140   */\n      dup2\n        /* \"#utility.yul\":4131:4147   */\n      add\n        /* \"#utility.yul\":4180:4183   */\n      dup5\n        /* \"#utility.yul\":4171:4177   */\n      dup5\n        /* \"#utility.yul\":4166:4169   */\n      dup5\n        /* \"#utility.yul\":4162:4178   */\n      add\n        /* \"#utility.yul\":4159:4184   */\n      gt\n        /* \"#utility.yul\":4156:4268   */\n      iszero\n      tag_119\n      jumpi\n        /* \"#utility.yul\":4187:4266   */\n      tag_120\n      tag_49\n      jump\t// in\n    tag_120:\n        /* \"#utility.yul\":4156:4268   */\n    tag_119:\n        /* \"#utility.yul\":4277:4331   */\n      tag_121\n        /* \"#utility.yul\":4324:4330   */\n      dup5\n        /* \"#utility.yul\":4319:4322   */\n      dup3\n        /* \"#utility.yul\":4314:4317   */\n      dup6\n        /* \"#utility.yul\":4277:4331   */\n      tag_54\n      jump\t// in\n    tag_121:\n        /* \"#utility.yul\":3996:4337   */\n      pop\n        /* \"#utility.yul\":3912:4337   */\n      swap4\n      swap3\n      pop\n      pop\n      pop\n      jump\t// out\n        /* \"#utility.yul\":4357:4697   */\n    tag_56:\n        /* \"#utility.yul\":4413:4418   */\n      0x00\n        /* \"#utility.yul\":4462:4465   */\n      dup3\n        /* \"#utility.yul\":4455:4459   */\n      0x1f\n        /* \"#utility.yul\":4447:4453   */\n      dup4\n        /* \"#utility.yul\":4443:4460   */\n      add\n        /* \"#utility.yul\":4439:4466   */\n      slt\n        /* \"#utility.yul\":4429:4551   */\n      tag_123\n      jumpi\n        /* \"#utility.yul\":4470:4549   */\n      tag_124\n      tag_48\n      jump\t// in\n    tag_124:\n        /* \"#utility.yul\":4429:4551   */\n    tag_123:\n        /* \"#utility.yul\":4587:4593   */\n      dup2\n        /* \"#utility.yul\":4574:4594   */\n      calldataload\n        /* \"#utility.yul\":4612:4691   */\n      tag_125\n        /* \"#utility.yul\":4687:4690   */\n      dup5\n        /* \"#utility.yul\":4679:4685   */\n      dup3\n        /* \"#utility.yul\":4672:4676   */\n      0x20\n        /* \"#utility.yul\":4664:4670   */\n      dup7\n        /* \"#utility.yul\":4660:4677   */\n      add\n        /* \"#utility.yul\":4612:4691   */\n      tag_55\n      jump\t// in\n    tag_125:\n        /* \"#utility.yul\":4603:4691   */\n      swap2\n      pop\n        /* \"#utility.yul\":4419:4697   */\n      pop\n        /* \"#utility.yul\":4357:4697   */\n      swap3\n      swap2\n      pop\n      pop\n      jump\t// out\n        /* \"#utility.yul\":4703:5212   */\n    tag_21:\n        /* \"#utility.yul\":4772:4778   */\n      0x00\n        /* \"#utility.yul\":4821:4823   */\n      0x20\n        /* \"#utility.yul\":4809:4818   */\n      dup3\n        /* \"#utility.yul\":4800:4807   */\n      dup5\n        /* \"#utility.yul\":4796:4819   */\n      sub\n        /* \"#utility.yul\":4792:4824   */\n      slt\n        /* \"#utility.yul\":4789:4908   */\n      iszero\n      tag_127\n      jumpi\n        /* \"#utility.yul\":4827:4906   */\n      tag_128\n      tag_46\n      jump\t// in\n    tag_128:\n        /* \"#utility.yul\":4789:4908   */\n    tag_127:\n        /* \"#utility.yul\":4975:4976   */\n      0x00\n        /* \"#utility.yul\":4964:4973   */\n      dup3\n        /* \"#utility.yul\":4960:4977   */\n      add\n        /* \"#utility.yul\":4947:4978   */\n      calldataload\n        /* \"#utility.yul\":5005:5023   */\n      0xffffffffffffffff\n        /* \"#utility.yul\":4997:5003   */\n      dup2\n        /* \"#utility.yul\":4994:5024   */\n      gt\n        /* \"#utility.yul\":4991:5108   */\n      iszero\n      tag_129\n      jumpi\n        /* \"#utility.yul\":5027:5106   */\n      tag_130\n      tag_47\n      jump\t// in\n    tag_130:\n        /* \"#utility.yul\":4991:5108   */\n    tag_129:\n        /* \"#utility.yul\":5132:5195   */\n      tag_131\n        /* \"#utility.yul\":5187:5194   */\n      dup5\n        /* \"#utility.yul\":5178:5184   */\n      dup3\n        /* \"#utility.yul\":5167:5176   */\n      dup6\n        /* \"#utility.yul\":5163:5185   */\n      add\n        /* \"#utility.yul\":5132:5195   */\n      tag_56\n      jump\t// in\n    tag_131:\n        /* \"#utility.yul\":5122:5195   */\n      swap2\n      pop\n        /* \"#utility.yul\":4918:5205   */\n      pop\n        /* \"#utility.yul\":4703:5212   */\n      swap3\n      swap2\n      pop\n      pop\n      jump\t// out\n        /* \"#utility.yul\":5218:5398   */\n    tag_57:\n        /* \"#utility.yul\":5266:5343   */\n      0x4e487b7100000000000000000000000000000000000000000000000000000000\n        /* \"#utility.yul\":5263:5264   */\n      0x00\n        /* \"#utility.yul\":5256:5344   */\n      mstore\n        /* \"#utility.yul\":5363:5367   */\n      0x22\n        /* \"#utility.yul\":5360:5361   */\n      0x04\n        /* \"#utility.yul\":5353:5368   */\n      mstore\n        /* \"#utility.yul\":5387:5391   */\n      0x24\n        /* \"#utility.yul\":5384:5385   */\n      0x00\n        /* \"#utility.yul\":5377:5392   */\n      revert\n        /* \"#utility.yul\":5404:5724   */\n    tag_24:\n        /* \"#utility.yul\":5448:5454   */\n      0x00\n        /* \"#utility.yul\":5485:5486   */\n      0x02\n        /* \"#utility.yul\":5479:5483   */\n      dup3\n        /* \"#utility.yul\":5475:5487   */\n      div\n        /* \"#utility.yul\":5465:5487   */\n      swap1\n      pop\n        /* \"#utility.yul\":5532:5533   */\n      0x01\n        /* \"#utility.yul\":5526:5530   */\n      dup3\n        /* \"#utility.yul\":5522:5534   */\n      and\n        /* \"#utility.yul\":5553:5571   */\n      dup1\n        /* \"#utility.yul\":5543:5624   */\n      tag_134\n      jumpi\n        /* \"#utility.yul\":5609:5613   */\n      0x7f\n        /* \"#utility.yul\":5601:5607   */\n      dup3\n        /* \"#utility.yul\":5597:5614   */\n      and\n        /* \"#utility.yul\":5587:5614   */\n      swap2\n      pop\n        /* \"#utility.yul\":5543:5624   */\n    tag_134:\n        /* \"#utility.yul\":5671:5673   */\n      0x20\n        /* \"#utility.yul\":5663:5669   */\n      dup3\n        /* \"#utility.yul\":5660:5674   */\n      lt\n        /* \"#utility.yul\":5640:5658   */\n      dup2\n        /* \"#utility.yul\":5637:5675   */\n      sub\n        /* \"#utility.yul\":5634:5718   */\n      tag_135\n      jumpi\n        /* \"#utility.yul\":5690:5708   */\n      tag_136\n      tag_57\n      jump\t// in\n    tag_136:\n        /* \"#utility.yul\":5634:5718   */\n    tag_135:\n        /* \"#utility.yul\":5455:5724   */\n      pop\n        /* \"#utility.yul\":5404:5724   */\n      swap2\n      swap1\n      pop\n      jump\t// out\n        /* \"#utility.yul\":5730:5871   */\n    tag_58:\n        /* \"#utility.yul\":5779:5783   */\n      0x00\n        /* \"#utility.yul\":5802:5805   */\n      dup2\n        /* \"#utility.yul\":5794:5805   */\n      swap1\n      pop\n        /* \"#utility.yul\":5825:5828   */\n      dup2\n        /* \"#utility.yul\":5822:5823   */\n      0x00\n        /* \"#utility.yul\":5815:5829   */\n      mstore\n        /* \"#utility.yul\":5859:5863   */\n      0x20\n        /* \"#utility.yul\":5856:5857   */\n      0x00\n        /* \"#utility.yul\":5846:5864   */\n      keccak256\n        /* \"#utility.yul\":5838:5864   */\n      swap1\n      pop\n        /* \"#utility.yul\":5730:5871   */\n      swap2\n      swap1\n      pop\n      jump\t// out\n        /* \"#utility.yul\":5877:5970   */\n    tag_59:\n        /* \"#utility.yul\":5914:5920   */\n      0x00\n        /* \"#utility.yul\":5961:5963   */\n      0x20\n        /* \"#utility.yul\":5956:5958   */\n      0x1f\n        /* \"#utility.yul\":5949:5954   */\n      dup4\n        /* \"#utility.yul\":5945:5959   */\n      add\n        /* \"#utility.yul\":5941:5964   */\n      div\n        /* \"#utility.yul\":5931:5964   */\n      swap1\n      pop\n        /* \"#utility.yul\":5877:5970   */\n      swap2\n      swap1\n      pop\n      jump\t// out\n        /* \"#utility.yul\":5976:6083   */\n    tag_60:\n        /* \"#utility.yul\":6020:6028   */\n      0x00\n        /* \"#utility.yul\":6070:6075   */\n      dup3\n        /* \"#utility.yul\":6064:6068   */\n      dup3\n        /* \"#utility.yul\":6060:6076   */\n      shl\n        /* \"#utility.yul\":6039:6076   */\n      swap1\n      pop\n        /* \"#utility.yul\":5976:6083   */\n      swap3\n      swap2\n      pop\n      pop\n      jump\t// out\n        /* \"#utility.yul\":6089:6482   */\n    tag_61:\n        /* \"#utility.yul\":6158:6164   */\n      0x00\n        /* \"#utility.yul\":6208:6209   */\n      0x08\n        /* \"#utility.yul\":6196:6206   */\n      dup4\n        /* \"#utility.yul\":6192:6210   */\n      mul\n        /* \"#utility.yul\":6231:6328   */\n      tag_141\n        /* \"#utility.yul\":6261:6327   */\n      0xffffffffffffffffffffffffffffffffffffffffffffffffffffffffffffffff\n        /* \"#utility.yul\":6250:6259   */\n      dup3\n        /* \"#utility.yul\":6231:6328   */\n      tag_60\n      jump\t// in\n    tag_141:\n        /* \"#utility.yul\":6349:6388   */\n      tag_142\n        /* \"#utility.yul\":6379:6387   */\n      dup7\n        /* \"#utility.yul\":6368:6377   */\n      dup4\n        /* \"#utility.yul\":6349:6388   */\n      tag_60\n      jump\t// in\n    tag_142:\n        /* \"#utility.yul\":6337:6388   */\n      swap6\n      pop\n        /* \"#utility.yul\":6421:6425   */\n      dup1\n        /* \"#utility.yul\":6417:6426   */\n      not\n        /* \"#utility.yul\":6410:6415   */\n      dup5\n        /* \"#utility.yul\":6406:6427   */\n      and\n        /* \"#utility.yul\":6397:6427   */\n      swap4\n      pop\n        /* \"#utility.yul\":6470:6474   */\n      dup1\n        /* \"#utility.yul\":6460:6468   */\n      dup7\n        /* \"#utility.yul\":6456:6475   */\n      and\n        /* \"#utility.yul\":6449:6454   */\n      dup5\n        /* \"#utility.yul\":6446:6476   */\n      or\n        /* \"#utility.yul\":6436:6476   */\n      swap3\n      pop\n        /* \"#utility.yul\":6165:6482   */\n      pop\n      pop\n        /* \"#utility.yul\":6089:6482   */\n      swap4\n      swap3\n      pop\n      pop\n      pop\n      jump\t// out\n        /* \"#utility.yul\":6488:6548   */\n    tag_62:\n        /* \"#utility.yul\":6516:6519   */\n      0x00\n        /* \"#utility.yul\":6537:6542   */\n      dup2\n        /* \"#utility.yul\":6530:6542   */\n      swap1\n      pop\n        /* \"#utility.yul\":6488:6548   */\n      swap2\n      swap1\n      pop\n      jump\t// out\n        /* \"#utility.yul\":6554:6696   */\n    tag_63:\n        /* \"#utility.yul\":6604:6613   */\n      0x00\n        /* \"#utility.yul\":6637:6690   */\n      tag_145\n        /* \"#utility.yul\":6655:6689   */\n      tag_146\n        /* \"#utility.yul\":6664:6688   */\n      tag_147\n        /* \"#utility.yul\":6682:6687   */\n      dup5\n        /* \"#utility.yul\":6664:6688   */\n      tag_40\n      jump\t// in\n    tag_147:\n        /* \"#utility.yul\":6655:6689   */\n      tag_62\n      jump\t// in\n    tag_146:\n        /* \"#utility.yul\":6637:6690   */\n      tag_40\n      jump\t// in\n    tag_145:\n        /* \"#utility.yul\":6624:6690   */\n      swap1\n      pop\n        /* \"#utility.yul\":6554:6696   */\n      swap2\n      swap1\n      pop\n      jump\t// out\n        /* \"#utility.yul\":6702:6777   */\n    tag_64:\n        /* \"#utility.yul\":6745:6748   */\n      0x00\n        /* \"#utility.yul\":6766:6771   */\n      dup2\n        /* \"#utility.yul\":6759:6771   */\n      swap1\n      pop\n        /* \"#utility.yul\":6702:6777   */\n      swap2\n      swap1\n      pop\n      jump\t// out\n        /* \"#utility.yul\":6783:7052   */\n    tag_65:\n        /* \"#utility.yul\":6893:6932   */\n      tag_150\n        /* \"#utility.yul\":6924:6931   */\n      dup4\n        /* \"#utility.yul\":6893:6932   */\n      tag_63\n      jump\t// in\n    tag_150:\n        /* \"#utility.yul\":6954:7045   */\n      tag_151\n        /* \"#utility.yul\":7003:7044   */\n      tag_152\n        /* \"#utility.yul\":7027:7043   */\n      dup3\n        /* \"#utility.yul\":7003:7044   */\n      tag_64\n      jump\t// in\n    tag_152:\n        /* \"#utility.yul\":6995:7001   */\n      dup5\n        /* \"#utility.yul\":6988:6992   */\n      dup5\n        /* \"#utility.yul\":6982:6993   */\n      sload\n        /* \"#utility.yul\":6954:7045   */\n      tag_61\n      jump\t// in\n    tag_151:\n        /* \"#utility.yul\":6948:6952   */\n      dup3\n        /* \"#utility.yul\":6941:7046   */\n      sstore\n        /* \"#utility.yul\":6859:7052   */\n      pop\n        /* \"#utility.yul\":6783:7052   */\n      pop\n      pop\n      pop\n      jump\t// out\n        /* \"#utility.yul\":7058:7131   */\n    tag_66:\n        /* \"#utility.yul\":7103:7106   */\n      0x00\n        /* \"#utility.yul\":7058:7131   */\n      swap1\n      jump\t// out\n        /* \"#utility.yul\":7137:7326   */\n    tag_67:\n        /* \"#utility.yul\":7214:7246   */\n      tag_155\n      tag_66\n      jump\t// in\n    tag_155:\n        /* \"#utility.yul\":7255:7320   */\n      tag_156\n        /* \"#utility.yul\":7313:7319   */\n      dup2\n        /* \"#utility.yul\":7305:7311   */\n      dup5\n        /* \"#utility.yul\":7299:7303   */\n      dup5\n        /* \"#utility.yul\":7255:7320   */\n      tag_65\n      jump\t// in\n    tag_156:\n        /* \"#utility.yul\":7190:7326   */\n      pop\n        /* \"#utility.yul\":7137:7326   */\n      pop\n      pop\n      jump\t// out\n        /* \"#utility.yul\":7332:7518   */\n    tag_68:\n        /* \"#utility.yul\":7392:7512   */\n    tag_158:\n        /* \"#utility.yul\":7409:7412   */\n      dup2\n        /* \"#utility.yul\":7402:7407   */\n      dup2\n        /* \"#utility.yul\":7399:7413   */\n      lt\n        /* \"#utility.yul\":7392:7512   */\n      iszero\n      tag_160\n      jumpi\n        /* \"#utility.yul\":7463:7502   */\n      tag_161\n        /* \"#utility.yul\":7500:7501   */\n      0x00\n        /* \"#utility.yul\":7493:7498   */\n      dup3\n        /* \"#utility.yul\":7463:7502   */\n      tag_67\n      jump\t// in\n    tag_161:\n        /* \"#utility.yul\":7436:7437   */\n      0x01\n        /* \"#utility.yul\":7429:7434   */\n      dup2\n        /* \"#utility.yul\":7425:7438   */\n      add\n        /* \"#utility.yul\":7416:7438   */\n      swap1\n      pop\n        /* \"#utility.yul\":7392:7512   */\n      jump(tag_158)\n    tag_160:\n        /* \"#utility.yul\":7332:7518   */\n      pop\n      pop\n      jump\t// out\n        /* \"#utility.yul\":7524:8067   */\n    tag_69:\n        /* \"#utility.yul\":7625:7627   */\n      0x1f\n        /* \"#utility.yul\":7620:7623   */\n      dup3\n        /* \"#utility.yul\":7617:7628   */\n      gt\n        /* \"#utility.yul\":7614:8060   */\n      iszero\n      tag_163\n      jumpi\n        /* \"#utility.yul\":7659:7697   */\n      tag_164\n        /* \"#utility.yul\":7691:7696   */\n      dup2\n        /* \"#utility.yul\":7659:7697   */\n      tag_58\n      jump\t// in\n    tag_164:\n        /* \"#utility.yul\":7743:7772   */\n      tag_165\n        /* \"#utility.yul\":7761:7771   */\n      dup5\n        /* \"#utility.yul\":7743:7772   */\n      tag_59\n      jump\t// in\n    tag_165:\n        /* \"#utility.yul\":7733:7741   */\n      dup2\n        /* \"#utility.yul\":7729:7773   */\n      add\n        /* \"#utility.yul\":7926:7928   */\n      0x20\n        /* \"#utility.yul\":7914:7924   */\n      dup6\n        /* \"#utility.yul\":7911:7929   */\n      lt\n        /* \"#utility.yul\":7908:7957   */\n      iszero\n      tag_166\n      jumpi\n        /* \"#utility.yul\":7947:7955   */\n      dup2\n        /* \"#utility.yul\":7932:7955   */\n      swap1\n      pop\n        /* \"#utility.yul\":7908:7957   */\n    tag_166:\n        /* \"#utility.yul\":7970:8050   */\n      tag_167\n        /* \"#utility.yul\":8026:8048   */\n      tag_168\n        /* \"#utility.yul\":8044:8047   */\n      dup6\n        /* \"#utility.yul\":8026:8048   */\n      tag_59\n      jump\t// in\n    tag_168:\n        /* \"#utility.yul\":8016:8024   */\n      dup4\n        /* \"#utility.yul\":8012:8049   */\n      add\n        /* \"#utility.yul\":7999:8010   */\n      dup3\n        /* \"#utility.yul\":7970:8050   */\n      tag_68\n      jump\t// in\n    tag_167:\n        /* \"#utility.yul\":7629:8060   */\n      pop\n      pop\n        /* \"#utility.yul\":7614:8060   */\n    tag_163:\n        /* \"#utility.yul\":7524:8067   */\n      pop\n      pop\n      pop\n      jump\t// out\n        /* \"#utility.yul\":8073:8190   */\n    tag_70:\n        /* \"#utility.yul\":8127:8135   */\n      0x00\n        /* \"#utility.yul\":8177:8182   */\n      dup3\n        /* \"#utility.yul\":8171:8175   */\n      dup3\n        /* \"#utility.yul\":8167:8183   */\n      shr\n        /* \"#utility.yul\":8146:8183   */\n      swap1\n      pop\n        /* \"#utility.yul\":8073:8190   */\n      swap3\n      swap2\n      pop\n      pop\n      jump\t// out\n        /* \"#utility.yul\":8196:8365   */\n    tag_71:\n        /* \"#utility.yul\":8240:8246   */\n      0x00\n        /* \"#utility.yul\":8273:8324   */\n      tag_171\n        /* \"#utility.yul\":8321:8322   */\n      0x00\n        /* \"#utility.yul\":8317:8323   */\n      not\n        /* \"#utility.yul\":8309:8314   */\n      dup5\n        /* \"#utility.yul\":8306:8307   */\n      0x08\n        /* \"#utility.yul\":8302:8315   */\n      mul\n        /* \"#utility.yul\":8273:8324   */\n      tag_70\n      jump\t// in\n    tag_171:\n        /* \"#utility.yul\":8269:8325   */\n      not\n        /* \"#utility.yul\":8354:8358   */\n      dup1\n        /* \"#utility.yul\":8348:8352   */\n      dup4\n        /* \"#utility.yul\":8344:8359   */\n      and\n        /* \"#utility.yul\":8334:8359   */\n      swap2\n      pop\n        /* \"#utility.yul\":8247:8365   */\n      pop\n        /* \"#utility.yul\":8196:8365   */\n      swap3\n      swap2\n      pop\n      pop\n      jump\t// out\n        /* \"#utility.yul\":8370:8665   */\n    tag_72:\n        /* \"#utility.yul\":8446:8450   */\n      0x00\n        /* \"#utility.yul\":8592:8621   */\n      tag_173\n        /* \"#utility.yul\":8617:8620   */\n      dup4\n        /* \"#utility.yul\":8611:8615   */\n      dup4\n        /* \"#utility.yul\":8592:8621   */\n      tag_71\n      jump\t// in\n    tag_173:\n        /* \"#utility.yul\":8584:8621   */\n      swap2\n      pop\n        /* \"#utility.yul\":8654:8657   */\n      dup3\n        /* \"#utility.yul\":8651:8652   */\n      0x02\n        /* \"#utility.yul\":8647:8658   */\n      mul\n        /* \"#utility.yul\":8641:8645   */\n      dup3\n        /* \"#utility.yul\":8638:8659   */\n      or\n        /* \"#utility.yul\":8630:8659   */\n      swap1\n      pop\n        /* \"#utility.yul\":8370:8665   */\n      swap3\n      swap2\n      pop\n      pop\n      jump\t// out\n        /* \"#utility.yul\":8670:10065   */\n    tag_32:\n        /* \"#utility.yul\":8787:8824   */\n      tag_175\n        /* \"#utility.yul\":8820:8823   */\n      dup3\n        /* \"#utility.yul\":8787:8824   */\n      tag_35\n      jump\t// in\n    tag_175:\n        /* \"#utility.yul\":8889:8907   */\n      0xffffffffffffffff\n        /* \"#utility.yul\":8881:8887   */\n      dup2\n        /* \"#utility.yul\":8878:8908   */\n      gt\n        /* \"#utility.yul\":8875:8931   */\n      iszero\n      tag_176\n      jumpi\n        /* \"#utility.yul\":8911:8929   */\n      tag_177\n      tag_50\n      jump\t// in\n    tag_177:\n        /* \"#utility.yul\":8875:8931   */\n    tag_176:\n        /* \"#utility.yul\":8955:8993   */\n      tag_178\n        /* \"#utility.yul\":8987:8991   */\n      dup3\n        /* \"#utility.yul\":8981:8992   */\n      sload\n        /* \"#utility.yul\":8955:8993   */\n      tag_24\n      jump\t// in\n    tag_178:\n        /* \"#utility.yul\":9040:9107   */\n      tag_179\n        /* \"#utility.yul\":9100:9106   */\n      dup3\n        /* \"#utility.yul\":9092:9098   */\n      dup3\n        /* \"#utility.yul\":9086:9090   */\n      dup6\n        /* \"#utility.yul\":9040:9107   */\n      tag_69\n      jump\t// in\n    tag_179:\n        /* \"#utility.yul\":9134:9135   */\n      0x00\n        /* \"#utility.yul\":9158:9162   */\n      0x20\n        /* \"#utility.yul\":9145:9162   */\n      swap1\n      pop\n        /* \"#utility.yul\":9190:9192   */\n      0x1f\n        /* \"#utility.yul\":9182:9188   */\n      dup4\n        /* \"#utility.yul\":9179:9193   */\n      gt\n        /* \"#utility.yul\":9207:9208   */\n      0x01\n        /* \"#utility.yul\":9202:9820   */\n      dup2\n      eq\n      tag_181\n      jumpi\n        /* \"#utility.yul\":9864:9865   */\n      0x00\n        /* \"#utility.yul\":9881:9887   */\n      dup5\n        /* \"#utility.yul\":9878:9955   */\n      iszero\n      tag_182\n      jumpi\n        /* \"#utility.yul\":9930:9939   */\n      dup3\n        /* \"#utility.yul\":9925:9928   */\n      dup8\n        /* \"#utility.yul\":9921:9940   */\n      add\n        /* \"#utility.yul\":9915:9941   */\n      mload\n        /* \"#utility.yul\":9906:9941   */\n      swap1\n      pop\n        /* \"#utility.yul\":9878:9955   */\n    tag_182:\n        /* \"#utility.yul\":9981:10048   */\n      tag_183\n        /* \"#utility.yul\":10041:10047   */\n      dup6\n        /* \"#utility.yul\":10034:10039   */\n      dup3\n        /* \"#utility.yul\":9981:10048   */\n      tag_72\n      jump\t// in\n    tag_183:\n        /* \"#utility.yul\":9975:9979   */\n      dup7\n        /* \"#utility.yul\":9968:10049   */\n      sstore\n        /* \"#utility.yul\":9837:10059   */\n      pop\n        /* \"#utility.yul\":9172:10059   */\n      jump(tag_180)\n        /* \"#utility.yul\":9202:9820   */\n    tag_181:\n        /* \"#utility.yul\":9254:9258   */\n      0x1f\n        /* \"#utility.yul\":9250:9259   */\n      not\n        /* \"#utility.yul\":9242:9248   */\n      dup5\n        /* \"#utility.yul\":9238:9260   */\n      and\n        /* \"#utility.yul\":9288:9325   */\n      tag_184\n        /* \"#utility.yul\":9320:9324   */\n      dup7\n        /* \"#utility.yul\":9288:9325   */\n      tag_58\n      jump\t// in\n    tag_184:\n        /* \"#utility.yul\":9347:9348   */\n      0x00\n        /* \"#utility.yul\":9361:9569   */\n    tag_185:\n        /* \"#utility.yul\":9375:9382   */\n      dup3\n        /* \"#utility.yul\":9372:9373   */\n      dup2\n        /* \"#utility.yul\":9369:9383   */\n      lt\n        /* \"#utility.yul\":9361:9569   */\n      iszero\n      tag_187\n      jumpi\n        /* \"#utility.yul\":9454:9463   */\n      dup5\n        /* \"#utility.yul\":9449:9452   */\n      dup10\n        /* \"#utility.yul\":9445:9464   */\n      add\n        /* \"#utility.yul\":9439:9465   */\n      mload\n        /* \"#utility.yul\":9431:9437   */\n      dup3\n        /* \"#utility.yul\":9424:9466   */\n      sstore\n        /* \"#utility.yul\":9505:9506   */\n      0x01\n        /* \"#utility.yul\":9497:9503   */\n      dup3\n        /* \"#utility.yul\":9493:9507   */\n      add\n        /* \"#utility.yul\":9483:9507   */\n      swap2\n      pop\n        /* \"#utility.yul\":9552:9554   */\n      0x20\n        /* \"#utility.yul\":9541:9550   */\n      dup6\n        /* \"#utility.yul\":9537:9555   */\n      add\n        /* \"#utility.yul\":9524:9555   */\n      swap5\n      pop\n        /* \"#utility.yul\":9398:9402   */\n      0x20\n        /* \"#utility.yul\":9395:9396   */\n      dup2\n        /* \"#utility.yul\":9391:9403   */\n      add\n        /* \"#utility.yul\":9386:9403   */\n      swap1\n      pop\n        /* \"#utility.yul\":9361:9569   */\n      jump(tag_185)\n    tag_187:\n        /* \"#utility.yul\":9597:9603   */\n      dup7\n        /* \"#utility.yul\":9588:9595   */\n      dup4\n        /* \"#utility.yul\":9585:9604   */\n      lt\n        /* \"#utility.yul\":9582:9761   */\n      iszero\n      tag_188\n      jumpi\n        /* \"#utility.yul\":9655:9664   */\n      dup5\n        /* \"#utility.yul\":9650:9653   */\n      dup10\n        /* \"#utility.yul\":9646:9665   */\n      add\n        /* \"#utility.yul\":9640:9666   */\n      mload\n        /* \"#utility.yul\":9698:9746   */\n      tag_189\n        /* \"#utility.yul\":9740:9744   */\n      0x1f\n        /* \"#utility.yul\":9732:9738   */\n      dup10\n        /* \"#utility.yul\":9728:9745   */\n      and\n        /* \"#utility.yul\":9717:9726   */\n      dup3\n        /* \"#utility.yul\":9698:9746   */\n      tag_71\n      jump\t// in\n    tag_189:\n        /* \"#utility.yul\":9690:9696   */\n      dup4\n        /* \"#utility.yul\":9683:9747   */\n      sstore\n        /* \"#utility.yul\":9605:9761   */\n      pop\n        /* \"#utility.yul\":9582:9761   */\n    tag_188:\n        /* \"#utility.yul\":9807:9808   */\n      0x01\n        /* \"#utility.yul\":9803:9804   */\n      0x02\n        /* \"#utility.yul\":9795:9801   */\n      dup9\n        /* \"#utility.yul\":9791:9805   */\n      mul\n        /* \"#utility.yul\":9787:9809   */\n      add\n        /* \"#utility.yul\":9781:9785   */\n      dup9\n        /* \"#utility.yul\":9774:9810   */\n      sstore\n        /* \"#utility.yul\":9209:9820   */\n      pop\n      pop\n      pop\n        /* \"#utility.yul\":9172:10059   */\n    tag_180:\n      pop\n        /* \"#utility.yul\":8762:10065   */\n      pop\n      pop\n      pop\n        /* \"#utility.yul\":8670:10065   */\n      pop\n      pop\n      jump\t// out\n        /* \"#utility.yul\":10071:10251   */\n    tag_73:\n        /* \"#utility.yul\":10119:10196   */\n      0x4e487b7100000000000000000000000000000000000000000000000000000000\n        /* \"#utility.yul\":10116:10117   */\n      0x00\n        /* \"#utility.yul\":10109:10197   */\n      mstore\n        /* \"#utility.yul\":10216:10220   */\n      0x11\n        /* \"#utility.yul\":10213:10214   */\n      0x04\n        /* \"#utility.yul\":10206:10221   */\n      mstore\n        /* \"#utility.yul\":10240:10244   */\n      0x24\n        /* \"#utility.yul\":10237:10238   */\n      0x00\n        /* \"#utility.yul\":10230:10245   */\n      revert\n        /* \"#utility.yul\":10257:10490   */\n    tag_34:\n        /* \"#utility.yul\":10296:10299   */\n      0x00\n        /* \"#utility.yul\":10319:10343   */\n      tag_192\n        /* \"#utility.yul\":10337:10342   */\n      dup3\n        /* \"#utility.yul\":10319:10343   */\n      tag_40\n      jump\t// in\n    tag_192:\n        /* \"#utility.yul\":10310:10343   */\n      swap2\n      pop\n        /* \"#utility.yul\":10365:10431   */\n      0xffffffffffffffffffffffffffffffffffffffffffffffffffffffffffffffff\n        /* \"#utility.yul\":10358:10363   */\n      dup3\n        /* \"#utility.yul\":10355:10432   */\n      sub\n        /* \"#utility.yul\":10352:10455   */\n      tag_193\n      jumpi\n        /* \"#utility.yul\":10435:10453   */\n      tag_194\n      tag_73\n      jump\t// in\n    tag_194:\n        /* \"#utility.yul\":10352:10455   */\n    tag_193:\n        /* \"#utility.yul\":10482:10483   */\n      0x01\n        /* \"#utility.yul\":10475:10480   */\n      dup3\n        /* \"#utility.yul\":10471:10484   */\n      add\n        /* \"#utility.yul\":10464:10484   */\n      swap1\n      pop\n        /* \"#utility.yul\":10257:10490   */\n      swap2\n      swap1\n      pop\n      jump\t// out\n\n    auxdata: 0xa2646970667358221220f104317910b3fe7b305a02d89b6266b41c6816be1e26bed2cd5e9761af6f38da64736f6c634300081a0033\n}\n",
				"bytecode": {
					"linkReferences": {},
					"object": "6080604052348015600e575f80fd5b503360025f6101000a81548173ffffffffffffffffffffffffffffffffffffffff021916908373ffffffffffffffffffffffffffffffffffffffff1602179055506108088061005c5f395ff3fe608060405234801561000f575f80fd5b506004361061004a575f3560e01c8063492bfa181461004e57806361bc221a1461006c5780638da5cb5b1461008a578063c3ccf402146100a8575b5f80fd5b6100566100c4565b6040516100639190610268565b60405180910390f35b610074610150565b60405161008191906102a0565b60405180910390f35b610092610155565b60405161009f91906102f8565b60405180910390f35b6100c260048036038101906100bd919061044e565b61017a565b005b600180546100d1906104c2565b80601f01602080910402602001604051908101604052809291908181526020018280546100fd906104c2565b80156101485780601f1061011f57610100808354040283529160200191610148565b820191905f5260205f20905b81548152906001019060200180831161012b57829003601f168201915b505050505081565b5f5481565b60025f9054906101000a900473ffffffffffffffffffffffffffffffffffffffff1681565b60025f9054906101000a900473ffffffffffffffffffffffffffffffffffffffff1673ffffffffffffffffffffffffffffffffffffffff163373ffffffffffffffffffffffffffffffffffffffff16036101f55780600190816101dd919061068f565b505f808154809291906101ef9061078b565b91905055505b50565b5f81519050919050565b5f82825260208201905092915050565b8281835e5f83830152505050565b5f601f19601f8301169050919050565b5f61023a826101f8565b6102448185610202565b9350610254818560208601610212565b61025d81610220565b840191505092915050565b5f6020820190508181035f8301526102808184610230565b905092915050565b5f819050919050565b61029a81610288565b82525050565b5f6020820190506102b35f830184610291565b92915050565b5f73ffffffffffffffffffffffffffffffffffffffff82169050919050565b5f6102e2826102b9565b9050919050565b6102f2816102d8565b82525050565b5f60208201905061030b5f8301846102e9565b92915050565b5f604051905090565b5f80fd5b5f80fd5b5f80fd5b5f80fd5b7f4e487b71000000000000000000000000000000000000000000000000000000005f52604160045260245ffd5b61036082610220565b810181811067ffffffffffffffff8211171561037f5761037e61032a565b5b80604052505050565b5f610391610311565b905061039d8282610357565b919050565b5f67ffffffffffffffff8211156103bc576103bb61032a565b5b6103c582610220565b9050602081019050919050565b828183375f83830152505050565b5f6103f26103ed846103a2565b610388565b90508281526020810184848401111561040e5761040d610326565b5b6104198482856103d2565b509392505050565b5f82601f83011261043557610434610322565b5b81356104458482602086016103e0565b91505092915050565b5f602082840312156104635761046261031a565b5b5f82013567ffffffffffffffff8111156104805761047f61031e565b5b61048c84828501610421565b91505092915050565b7f4e487b71000000000000000000000000000000000000000000000000000000005f52602260045260245ffd5b5f60028204905060018216806104d957607f821691505b6020821081036104ec576104eb610495565b5b50919050565b5f819050815f5260205f209050919050565b5f6020601f8301049050919050565b5f82821b905092915050565b5f6008830261054e7fffffffffffffffffffffffffffffffffffffffffffffffffffffffffffffffff82610513565b6105588683610513565b95508019841693508086168417925050509392505050565b5f819050919050565b5f61059361058e61058984610288565b610570565b610288565b9050919050565b5f819050919050565b6105ac83610579565b6105c06105b88261059a565b84845461051f565b825550505050565b5f90565b6105d46105c8565b6105df8184846105a3565b505050565b5b81811015610602576105f75f826105cc565b6001810190506105e5565b5050565b601f82111561064757610618816104f2565b61062184610504565b81016020851015610630578190505b61064461063c85610504565b8301826105e4565b50505b505050565b5f82821c905092915050565b5f6106675f198460080261064c565b1980831691505092915050565b5f61067f8383610658565b9150826002028217905092915050565b610698826101f8565b67ffffffffffffffff8111156106b1576106b061032a565b5b6106bb82546104c2565b6106c6828285610606565b5f60209050601f8311600181146106f7575f84156106e5578287015190505b6106ef8582610674565b865550610756565b601f198416610705866104f2565b5f5b8281101561072c57848901518255600182019150602085019450602081019050610707565b868310156107495784890151610745601f891682610658565b8355505b6001600288020188555050505b505050505050565b7f4e487b71000000000000000000000000000000000000000000000000000000005f52601160045260245ffd5b5f61079582610288565b91507fffffffffffffffffffffffffffffffffffffffffffffffffffffffffffffffff82036107c7576107c661075e565b5b60018201905091905056fea2646970667358221220f104317910b3fe7b305a02d89b6266b41c6816be1e26bed2cd5e9761af6f38da64736f6c634300081a0033",
					"opcodes": "PUSH1 0x80 PUSH1 0x40 MSTORE CALLVALUE DUP1 ISZERO PUSH1 0xE JUMPI PUSH0 DUP1 REVERT JUMPDEST POP CALLER PUSH1 0x2 PUSH0 PUSH2 0x100 EXP DUP2 SLOAD DUP2 PUSH20 0xFFFFFFFFFFFFFFFFFFFFFFFFFFFFFFFFFFFFFFFF MUL NOT AND SWAP1 DUP4 PUSH20 0xFFFFFFFFFFFFFFFFFFFFFFFFFFFFFFFFFFFFFFFF AND MUL OR SWAP1 SSTORE POP PUSH2 0x808 DUP1 PUSH2 0x5C PUSH0 CODECOPY PUSH0 RETURN INVALID PUSH1 0x80 PUSH1 0x40 MSTORE CALLVALUE DUP1 ISZERO PUSH2 0xF JUMPI PUSH0 DUP1 REVERT JUMPDEST POP PUSH1 0x4 CALLDATASIZE LT PUSH2 0x4A JUMPI PUSH0 CALLDATALOAD PUSH1 0xE0 SHR DUP1 PUSH4 0x492BFA18 EQ PUSH2 0x4E JUMPI DUP1 PUSH4 0x61BC221A EQ PUSH2 0x6C JUMPI DUP1 PUSH4 0x8DA5CB5B EQ PUSH2 0x8A JUMPI DUP1 PUSH4 0xC3CCF402 EQ PUSH2 0xA8 JUMPI JUMPDEST PUSH0 DUP1 REVERT JUMPDEST PUSH2 0x56 PUSH2 0xC4 JUMP JUMPDEST PUSH1 0x40 MLOAD PUSH2 0x63 SWAP2 SWAP1 PUSH2 0x268 JUMP JUMPDEST PUSH1 0x40 MLOAD DUP1 SWAP2 SUB SWAP1 RETURN JUMPDEST PUSH2 0x74 PUSH2 0x150 JUMP JUMPDEST PUSH1 0x40 MLOAD PUSH2 0x81 SWAP2 SWAP1 PUSH2 0x2A0 JUMP JUMPDEST PUSH1 0x40 MLOAD DUP1 SWAP2 SUB SWAP1 RETURN JUMPDEST PUSH2 0x92 PUSH2 0x155 JUMP JUMPDEST PUSH1 0x40 MLOAD PUSH2 0x9F SWAP2 SWAP1 PUSH2 0x2F8 JUMP JUMPDEST PUSH1 0x40 MLOAD DUP1 SWAP2 SUB SWAP1 RETURN JUMPDEST PUSH2 0xC2 PUSH1 0x4 DUP1 CALLDATASIZE SUB DUP2 ADD SWAP1 PUSH2 0xBD SWAP2 SWAP1 PUSH2 0x44E JUMP JUMPDEST PUSH2 0x17A JUMP JUMPDEST STOP JUMPDEST PUSH1 0x1 DUP1 SLOAD PUSH2 0xD1 SWAP1 PUSH2 0x4C2 JUMP JUMPDEST DUP1 PUSH1 0x1F ADD PUSH1 0x20 DUP1 SWAP2 DIV MUL PUSH1 0x20 ADD PUSH1 0x40 MLOAD SWAP1 DUP2 ADD PUSH1 0x40 MSTORE DUP1 SWAP3 SWAP2 SWAP1 DUP2 DUP2 MSTORE PUSH1 0x20 ADD DUP3 DUP1 SLOAD PUSH2 0xFD SWAP1 PUSH2 0x4C2 JUMP JUMPDEST DUP1 ISZERO PUSH2 0x148 JUMPI DUP1 PUSH1 0x1F LT PUSH2 0x11F JUMPI PUSH2 0x100 DUP1 DUP4 SLOAD DIV MUL DUP4 MSTORE SWAP2 PUSH1 0x20 ADD SWAP2 PUSH2 0x148 JUMP JUMPDEST DUP3 ADD SWAP2 SWAP1 PUSH0 MSTORE PUSH1 0x20 PUSH0 KECCAK256 SWAP1 JUMPDEST DUP2 SLOAD DUP2 MSTORE SWAP1 PUSH1 0x1 ADD SWAP1 PUSH1 0x20 ADD DUP1 DUP4 GT PUSH2 0x12B JUMPI DUP3 SWAP1 SUB PUSH1 0x1F AND DUP3 ADD SWAP2 JUMPDEST POP POP POP POP POP DUP2 JUMP JUMPDEST PUSH0 SLOAD DUP2 JUMP JUMPDEST PUSH1 0x2 PUSH0 SWAP1 SLOAD SWAP1 PUSH2 0x100 EXP SWAP1 DIV PUSH20 0xFFFFFFFFFFFFFFFFFFFFFFFFFFFFFFFFFFFFFFFF AND DUP2 JUMP JUMPDEST PUSH1 0x2 PUSH0 SWAP1 SLOAD SWAP1 PUSH2 0x100 EXP SWAP1 DIV PUSH20 0xFFFFFFFFFFFFFFFFFFFFFFFFFFFFFFFFFFFFFFFF AND PUSH20 0xFFFFFFFFFFFFFFFFFFFFFFFFFFFFFFFFFFFFFFFF AND CALLER PUSH20 0xFFFFFFFFFFFFFFFFFFFFFFFFFFFFFFFFFFFFFFFF AND SUB PUSH2 0x1F5 JUMPI DUP1 PUSH1 0x1 SWAP1 DUP2 PUSH2 0x1DD SWAP2 SWAP1 PUSH2 0x68F JUMP JUMPDEST POP PUSH0 DUP1 DUP2 SLOAD DUP1 SWAP3 SWAP2 SWAP1 PUSH2 0x1EF SWAP1 PUSH2 0x78B JUMP JUMPDEST SWAP2 SWAP1 POP SSTORE POP JUMPDEST POP JUMP JUMPDEST PUSH0 DUP2 MLOAD SWAP1 POP SWAP2 SWAP1 POP JUMP JUMPDEST PUSH0 DUP3 DUP3 MSTORE PUSH1 0x20 DUP3 ADD SWAP1 POP SWAP3 SWAP2 POP POP JUMP JUMPDEST DUP3 DUP2 DUP4 MCOPY PUSH0 DUP4 DUP4 ADD MSTORE POP POP POP JUMP JUMPDEST PUSH0 PUSH1 0x1F NOT PUSH1 0x1F DUP4 ADD AND SWAP1 POP SWAP2 SWAP1 POP JUMP JUMPDEST PUSH0 PUSH2 0x23A DUP3 PUSH2 0x1F8 JUMP JUMPDEST PUSH2 0x244 DUP2 DUP6 PUSH2 0x202 JUMP JUMPDEST SWAP4 POP PUSH2 0x254 DUP2 DUP6 PUSH1 0x20 DUP7 ADD PUSH2 0x212 JUMP JUMPDEST PUSH2 0x25D DUP2 PUSH2 0x220 JUMP JUMPDEST DUP5 ADD SWAP2 POP POP SWAP3 SWAP2 POP POP JUMP JUMPDEST PUSH0 PUSH1 0x20 DUP3 ADD SWAP1 POP DUP2 DUP2 SUB PUSH0 DUP4 ADD MSTORE PUSH2 0x280 DUP2 DUP5 PUSH2 0x230 JUMP JUMPDEST SWAP1 POP SWAP3 SWAP2 POP POP JUMP JUMPDEST PUSH0 DUP2 SWAP1 POP SWAP2 SWAP1 POP JUMP JUMPDEST PUSH2 0x29A DUP2 PUSH2 0x288 JUMP JUMPDEST DUP3 MSTORE POP POP JUMP JUMPDEST PUSH0 PUSH1 0x20 DUP3 ADD SWAP1 POP PUSH2 0x2B3 PUSH0 DUP4 ADD DUP5 PUSH2 0x291 JUMP JUMPDEST SWAP3 SWAP2 POP POP JUMP JUMPDEST PUSH0 PUSH20 0xFFFFFFFFFFFFFFFFFFFFFFFFFFFFFFFFFFFFFFFF DUP3 AND SWAP1 POP SWAP2 SWAP1 POP JUMP JUMPDEST PUSH0 PUSH2 0x2E2 DUP3 PUSH2 0x2B9 JUMP JUMPDEST SWAP1 POP SWAP2 SWAP1 POP JUMP JUMPDEST PUSH2 0x2F2 DUP2 PUSH2 0x2D8 JUMP JUMPDEST DUP3 MSTORE POP POP JUMP JUMPDEST PUSH0 PUSH1 0x20 DUP3 ADD SWAP1 POP PUSH2 0x30B PUSH0 DUP4 ADD DUP5 PUSH2 0x2E9 JUMP JUMPDEST SWAP3 SWAP2 POP POP JUMP JUMPDEST PUSH0 PUSH1 0x40 MLOAD SWAP1 POP SWAP1 JUMP JUMPDEST PUSH0 DUP1 REVERT JUMPDEST PUSH0 DUP1 REVERT JUMPDEST PUSH0 DUP1 REVERT JUMPDEST PUSH0 DUP1 REVERT JUMPDEST PUSH32 0x4E487B7100000000000000000000000000000000000000000000000000000000 PUSH0 MSTORE PUSH1 0x41 PUSH1 0x4 MSTORE PUSH1 0x24 PUSH0 REVERT JUMPDEST PUSH2 0x360 DUP3 PUSH2 0x220 JUMP JUMPDEST DUP2 ADD DUP2 DUP2 LT PUSH8 0xFFFFFFFFFFFFFFFF DUP3 GT OR ISZERO PUSH2 0x37F JUMPI PUSH2 0x37E PUSH2 0x32A JUMP JUMPDEST JUMPDEST DUP1 PUSH1 0x40 MSTORE POP POP POP JUMP JUMPDEST PUSH0 PUSH2 0x391 PUSH2 0x311 JUMP JUMPDEST SWAP1 POP PUSH2 0x39D DUP3 DUP3 PUSH2 0x357 JUMP JUMPDEST SWAP2 SWAP1 POP JUMP JUMPDEST PUSH0 PUSH8 0xFFFFFFFFFFFFFFFF DUP3 GT ISZERO PUSH2 0x3BC JUMPI PUSH2 0x3BB PUSH2 0x32A JUMP JUMPDEST JUMPDEST PUSH2 0x3C5 DUP3 PUSH2 0x220 JUMP JUMPDEST SWAP1 POP PUSH1 0x20 DUP2 ADD SWAP1 POP SWAP2 SWAP1 POP JUMP JUMPDEST DUP3 DUP2 DUP4 CALLDATACOPY PUSH0 DUP4 DUP4 ADD MSTORE POP POP POP JUMP JUMPDEST PUSH0 PUSH2 0x3F2 PUSH2 0x3ED DUP5 PUSH2 0x3A2 JUMP JUMPDEST PUSH2 0x388 JUMP JUMPDEST SWAP1 POP DUP3 DUP2 MSTORE PUSH1 0x20 DUP2 ADD DUP5 DUP5 DUP5 ADD GT ISZERO PUSH2 0x40E JUMPI PUSH2 0x40D PUSH2 0x326 JUMP JUMPDEST JUMPDEST PUSH2 0x419 DUP5 DUP3 DUP6 PUSH2 0x3D2 JUMP JUMPDEST POP SWAP4 SWAP3 POP POP POP JUMP JUMPDEST PUSH0 DUP3 PUSH1 0x1F DUP4 ADD SLT PUSH2 0x435 JUMPI PUSH2 0x434 PUSH2 0x322 JUMP JUMPDEST JUMPDEST DUP2 CALLDATALOAD PUSH2 0x445 DUP5 DUP3 PUSH1 0x20 DUP7 ADD PUSH2 0x3E0 JUMP JUMPDEST SWAP2 POP POP SWAP3 SWAP2 POP POP JUMP JUMPDEST PUSH0 PUSH1 0x20 DUP3 DUP5 SUB SLT ISZERO PUSH2 0x463 JUMPI PUSH2 0x462 PUSH2 0x31A JUMP JUMPDEST JUMPDEST PUSH0 DUP3 ADD CALLDATALOAD PUSH8 0xFFFFFFFFFFFFFFFF DUP2 GT ISZERO PUSH2 0x480 JUMPI PUSH2 0x47F PUSH2 0x31E JUMP JUMPDEST JUMPDEST PUSH2 0x48C DUP5 DUP3 DUP6 ADD PUSH2 0x421 JUMP JUMPDEST SWAP2 POP POP SWAP3 SWAP2 POP POP JUMP JUMPDEST PUSH32 0x4E487B7100000000000000000000000000000000000000000000000000000000 PUSH0 MSTORE PUSH1 0x22 PUSH1 0x4 MSTORE PUSH1 0x24 PUSH0 REVERT JUMPDEST PUSH0 PUSH1 0x2 DUP3 DIV SWAP1 POP PUSH1 0x1 DUP3 AND DUP1 PUSH2 0x4D9 JUMPI PUSH1 0x7F DUP3 AND SWAP2 POP JUMPDEST PUSH1 0x20 DUP3 LT DUP2 SUB PUSH2 0x4EC JUMPI PUSH2 0x4EB PUSH2 0x495 JUMP JUMPDEST JUMPDEST POP SWAP2 SWAP1 POP JUMP JUMPDEST PUSH0 DUP2 SWAP1 POP DUP2 PUSH0 MSTORE PUSH1 0x20 PUSH0 KECCAK256 SWAP1 POP SWAP2 SWAP1 POP JUMP JUMPDEST PUSH0 PUSH1 0x20 PUSH1 0x1F DUP4 ADD DIV SWAP1 POP SWAP2 SWAP1 POP JUMP JUMPDEST PUSH0 DUP3 DUP3 SHL SWAP1 POP SWAP3 SWAP2 POP POP JUMP JUMPDEST PUSH0 PUSH1 0x8 DUP4 MUL PUSH2 0x54E PUSH32 0xFFFFFFFFFFFFFFFFFFFFFFFFFFFFFFFFFFFFFFFFFFFFFFFFFFFFFFFFFFFFFFFF DUP3 PUSH2 0x513 JUMP JUMPDEST PUSH2 0x558 DUP7 DUP4 PUSH2 0x513 JUMP JUMPDEST SWAP6 POP DUP1 NOT DUP5 AND SWAP4 POP DUP1 DUP7 AND DUP5 OR SWAP3 POP POP POP SWAP4 SWAP3 POP POP POP JUMP JUMPDEST PUSH0 DUP2 SWAP1 POP SWAP2 SWAP1 POP JUMP JUMPDEST PUSH0 PUSH2 0x593 PUSH2 0x58E PUSH2 0x589 DUP5 PUSH2 0x288 JUMP JUMPDEST PUSH2 0x570 JUMP JUMPDEST PUSH2 0x288 JUMP JUMPDEST SWAP1 POP SWAP2 SWAP1 POP JUMP JUMPDEST PUSH0 DUP2 SWAP1 POP SWAP2 SWAP1 POP JUMP JUMPDEST PUSH2 0x5AC DUP4 PUSH2 0x579 JUMP JUMPDEST PUSH2 0x5C0 PUSH2 0x5B8 DUP3 PUSH2 0x59A JUMP JUMPDEST DUP5 DUP5 SLOAD PUSH2 0x51F JUMP JUMPDEST DUP3 SSTORE POP POP POP POP JUMP JUMPDEST PUSH0 SWAP1 JUMP JUMPDEST PUSH2 0x5D4 PUSH2 0x5C8 JUMP JUMPDEST PUSH2 0x5DF DUP2 DUP5 DUP5 PUSH2 0x5A3 JUMP JUMPDEST POP POP POP JUMP JUMPDEST JUMPDEST DUP2 DUP2 LT ISZERO PUSH2 0x602 JUMPI PUSH2 0x5F7 PUSH0 DUP3 PUSH2 0x5CC JUMP JUMPDEST PUSH1 0x1 DUP2 ADD SWAP1 POP PUSH2 0x5E5 JUMP JUMPDEST POP POP JUMP JUMPDEST PUSH1 0x1F DUP3 GT ISZERO PUSH2 0x647 JUMPI PUSH2 0x618 DUP2 PUSH2 0x4F2 JUMP JUMPDEST PUSH2 0x621 DUP5 PUSH2 0x504 JUMP JUMPDEST DUP2 ADD PUSH1 0x20 DUP6 LT ISZERO PUSH2 0x630 JUMPI DUP2 SWAP1 POP JUMPDEST PUSH2 0x644 PUSH2 0x63C DUP6 PUSH2 0x504 JUMP JUMPDEST DUP4 ADD DUP3 PUSH2 0x5E4 JUMP JUMPDEST POP POP JUMPDEST POP POP POP JUMP JUMPDEST PUSH0 DUP3 DUP3 SHR SWAP1 POP SWAP3 SWAP2 POP POP JUMP JUMPDEST PUSH0 PUSH2 0x667 PUSH0 NOT DUP5 PUSH1 0x8 MUL PUSH2 0x64C JUMP JUMPDEST NOT DUP1 DUP4 AND SWAP2 POP POP SWAP3 SWAP2 POP POP JUMP JUMPDEST PUSH0 PUSH2 0x67F DUP4 DUP4 PUSH2 0x658 JUMP JUMPDEST SWAP2 POP DUP3 PUSH1 0x2 MUL DUP3 OR SWAP1 POP SWAP3 SWAP2 POP POP JUMP JUMPDEST PUSH2 0x698 DUP3 PUSH2 0x1F8 JUMP JUMPDEST PUSH8 0xFFFFFFFFFFFFFFFF DUP2 GT ISZERO PUSH2 0x6B1 JUMPI PUSH2 0x6B0 PUSH2 0x32A JUMP JUMPDEST JUMPDEST PUSH2 0x6BB DUP3 SLOAD PUSH2 0x4C2 JUMP JUMPDEST PUSH2 0x6C6 DUP3 DUP3 DUP6 PUSH2 0x606 JUMP JUMPDEST PUSH0 PUSH1 0x20 SWAP1 POP PUSH1 0x1F DUP4 GT PUSH1 0x1 DUP2 EQ PUSH2 0x6F7 JUMPI PUSH0 DUP5 ISZERO PUSH2 0x6E5 JUMPI DUP3 DUP8 ADD MLOAD SWAP1 POP JUMPDEST PUSH2 0x6EF DUP6 DUP3 PUSH2 0x674 JUMP JUMPDEST DUP7 SSTORE POP PUSH2 0x756 JUMP JUMPDEST PUSH1 0x1F NOT DUP5 AND PUSH2 0x705 DUP7 PUSH2 0x4F2 JUMP JUMPDEST PUSH0 JUMPDEST DUP3 DUP2 LT ISZERO PUSH2 0x72C JUMPI DUP5 DUP10 ADD MLOAD DUP3 SSTORE PUSH1 0x1 DUP3 ADD SWAP2 POP PUSH1 0x20 DUP6 ADD SWAP5 POP PUSH1 0x20 DUP2 ADD SWAP1 POP PUSH2 0x707 JUMP JUMPDEST DUP7 DUP4 LT ISZERO PUSH2 0x749 JUMPI DUP5 DUP10 ADD MLOAD PUSH2 0x745 PUSH1 0x1F DUP10 AND DUP3 PUSH2 0x658 JUMP JUMPDEST DUP4 SSTORE POP JUMPDEST PUSH1 0x1 PUSH1 0x2 DUP9 MUL ADD DUP9 SSTORE POP POP POP JUMPDEST POP POP POP POP POP POP JUMP JUMPDEST PUSH32 0x4E487B7100000000000000000000000000000000000000000000000000000000 PUSH0 MSTORE PUSH1 0x11 PUSH1 0x4 MSTORE PUSH1 0x24 PUSH0 REVERT JUMPDEST PUSH0 PUSH2 0x795 DUP3 PUSH2 0x288 JUMP JUMPDEST SWAP2 POP PUSH32 0xFFFFFFFFFFFFFFFFFFFFFFFFFFFFFFFFFFFFFFFFFFFFFFFFFFFFFFFFFFFFFFFF DUP3 SUB PUSH2 0x7C7 JUMPI PUSH2 0x7C6 PUSH2 0x75E JUMP JUMPDEST JUMPDEST PUSH1 0x1 DUP3 ADD SWAP1 POP SWAP2 SWAP1 POP JUMP INVALID LOG2 PUSH5 0x6970667358 0x22 SLT KECCAK256 CALL DIV BALANCE PUSH26 0x10B3FE7B305A02D89B6266B41C6816BE1E26BED2CD5E9761AF6F CODESIZE 0xDA PUSH5 0x736F6C6343 STOP ADDMOD BYTE STOP CALLER "
				},
				"gasEstimates": {
					"creation": {
						"codeDepositCost": "411200",
						"executionCost": "24712",
						"totalCost": "435912"
					},
					"external": {
						"counter()": "2424",
						"myString()": "infinite",
						"owner()": "2530",
						"updateString(string)": "infinite"
					}
				},
				"methodIdentifiers": {
					"counter()": "61bc221a",
					"myString()": "492bfa18",
					"owner()": "8da5cb5b",
					"updateString(string)": "c3ccf402"
				}
			},
			"storageLayout": {
				"storage": [
					{
						"astId": 3,
						"contract": "contracts/BlockchainMessenger.sol:BlockchainMessager",
						"label": "counter",
						"offset": 0,
						"slot": "0",
						"type": "t_uint256"
					},
					{
						"astId": 5,
						"contract": "contracts/BlockchainMessenger.sol:BlockchainMessager",
						"label": "myString",
						"offset": 0,
						"slot": "1",
						"type": "t_string_storage"
					},
					{
						"astId": 7,
						"contract": "contracts/BlockchainMessenger.sol:BlockchainMessager",
						"label": "owner",
						"offset": 0,
						"slot": "2",
						"type": "t_address"
					}
				],
				"types": {
					"t_address": {
						"encoding": "inplace",
						"label": "address",
						"numberOfBytes": "20"
					},
					"t_string_storage": {
						"encoding": "bytes",
						"label": "string",
						"numberOfBytes": "32"
					},
					"t_uint256": {
						"encoding": "inplace",
						"label": "uint256",
						"numberOfBytes": "32"
					}
				}
			},
			"userdoc": {
				"kind": "user",
				"methods": {},
				"version": 1
			}
		}
	}
}